:020000040800F2
:1000000000280020F1170008811700088717000852
:100010008D170008931700089917000800000000CA
:100020000000000000000000000000009F17000812
:10003000AB17000800000000B7170008C31700083E
:10004000391800083918000839180008391800084C
:10005000391800083918000839180008391800083C
:10006000391800083918000839180008391800082C
:10007000391800083918000839180008391800081C
:10008000391800083918000839180008391800080C
:1000900039180008391800083918000839180008FC
:1000A00039180008391800083918000839180008EC
:1000B000D11700083918000800000000391800089E
:1000C000391800080000000000000000391800087E
:1000D000000000003918000839180008000000006E
:1000E0003918000839180008391800080000000005
:1000F0000000000000000000000000000000000000
:0C01000000000000000000005FF808F1A3
:10010C0010B5054C237833B9044B13B10448AFF345
:10011C0000800123237010BD94000020000000001B
:10012C00382E000808B5034B1BB103490348AFF345
:10013C00008008BD0000000098000020382E000848
:10014C0080B500AF00228021144801F072FE00221D
:10015C004FF48071114801F06CFE00224FF40071D5
:10016C000E4801F066FE00224FF480610B4801F04E
:10017C0060FE00224FF40061084801F05AFE002294
:10018C004FF48051054801F054FE01224FF4005108
:10019C00024801F04EFE00BF80BD00BF000C0140C4
:1001AC0080B500AF01228021144801F042FE0022EC
:1001BC004FF48071114801F03CFE00224FF40071A5
:1001CC000E4801F036FE01224FF480610B4801F01D
:1001DC0030FE01224FF40061084801F02AFE012292
:1001EC004FF48051054801F024FE01224FF40051D8
:1001FC00024801F01EFE00BF80BD00BF000C014094
:10020C0080B500AF00228021144801F012FE0022BC
:10021C004FF48071114801F00CFE01224FF4007173
:10022C000E4801F006FE00224FF480610B4801F0ED
:10023C0000FE00224FF40061084801F0FAFD012293
:10024C004FF48051054801F0F4FD00224FF40051A9
:10025C00024801F0EEFD00BF80BD00BF000C014064
:10026C0080B500AF00228021144801F0E2FD00228D
:10027C004FF48071114801F0DCFD00224FF4007145
:10028C000E4801F0D6FD00224FF480610B4801F0BE
:10029C00D0FD01224FF40061084801F0CAFD012293
:1002AC004FF48051054801F0C4FD00224FF4005179
:1002BC00024801F0BEFD00BF80BD00BF000C014034
:1002CC0080B500AF01228021144801F0B2FD00225C
:1002DC004FF48071114801F0ACFD00224FF4007115
:1002EC000E4801F0A6FD01224FF480610B4801F08D
:1002FC00A0FD01224FF40061084801F09AFD002294
:10030C004FF48051054801F094FD00224FF4005148
:10031C00024801F08EFD00BF80BD00BF000C014003
:10032C0080B500AF00228021144801F082FD01222B
:10033C004FF48071114801F07CFD00224FF40071E4
:10034C000E4801F076FD00224FF480610B4801F05D
:10035C0070FD01224FF40061084801F06AFD002293
:10036C004FF48051054801F064FD00224FF4005118
:10037C00024801F05EFD00BF80BD00BF000C0140D3
:10038C0080B500AF00228021144801F052FD0122FB
:10039C004FF48071114801F04CFD00224FF40071B4
:1003AC000E4801F046FD00224FF480610B4801F02D
:1003BC0040FD00224FF40061084801F03AFD002294
:1003CC004FF48051054801F034FD00224FF40051E8
:1003DC00024801F02EFD00BF80BD00BF000C0140A3
:1003EC0080B500AF00228021144801F022FD0022CC
:1003FC004FF48071114801F01CFD00224FF4007184
:10040C000E4801F016FD01224FF480610B4801F0FB
:10041C0010FD01224FF40061084801F00AFD012291
:10042C004FF48051054801F004FD01224FF40051B6
:10043C00024801F0FEFC00BF80BD00BF000C014073
:10044C0080B500AF00228021144801F0F2FC00229C
:10045C004FF48071114801F0ECFC00224FF4007154
:10046C000E4801F0E6FC00224FF480610B4801F0CD
:10047C00E0FC00224FF40061084801F0DAFC002295
:10048C004FF48051054801F0D4FC00224FF4005188
:10049C00024801F0CEFC00BF80BD00BF000C014043
:1004AC0080B500AF00228021144801F0C2FC00226C
:1004BC004FF48071114801F0BCFC00224FF4007124
:1004CC000E4801F0B6FC00224FF480610B4801F09D
:1004DC00B0FC01224FF40061084801F0AAFC002294
:1004EC004FF48051054801F0A4FC00224FF4005158
:1004FC00024801F09EFC00BF80BD00BF000C014013
:10050C0080B582B000AF78607B68092B34D801A22B
:10051C0052F823F0490500084F050008550500085E
:10052C005B05000861050008670500086D050008FB
:10053C0073050008790500087F050008FFF700FE29
:10054C001AE0FFF72DFE17E0FFF75AFE14E0FFF755
:10055C0087FE11E0FFF7B4FE0EE0FFF7E1FE0BE0C3
:10056C00FFF70EFF08E0FFF73BFF05E0FFF768FF22
:10057C0002E0FFF795FF00BF00BF0837BD4680BD06
:10058C0080B500AF00220121114801F052FC00227D
:10059C0002210F4801F04DFC002204210C4801F00F
:1005AC0048FC002208210A4801F043FC00221021DB
:1005BC00074801F03EFC00222021054801F039FCDF
:1005CC0001224021024801F034FC00BF80BD00BF75
:1005DC00000C014080B500AF01220121114801F04F
:1005EC0028FC002202210F4801F023FC00220421E8
:1005FC000C4801F01EFC012208210A4801F019FCEC
:10060C0001221021074801F014FC01222021054889
:10061C0001F00FFC01224021024801F00AFC00BF4E
:10062C0080BD00BF000C014080B500AF002201214D
:10063C00114801F0FEFB002202210F4801F0F9FBEA
:10064C00012204210C4801F0F4FB002208210A4885
:10065C0001F0EFFB00221021074801F0EAFB012218
:10066C002021054801F0E5FB00224021024801F061
:10067C00E0FB00BF80BD00BF000C014080B500AFA7
:10068C0000220121114801F0D4FB002202210F4865
:10069C0001F0CFFB002204210C4801F0CAFB002220
:1006AC0008210A4801F0C5FB01221021074801F07E
:1006BC00C0FB01222021054801F0BBFB0022402198
:1006CC00024801F0B6FB00BF80BD00BF000C01402A
:1006DC0080B500AF01220121114801F0AAFB0022D4
:1006EC0002210F4801F0A5FB002204210C4801F067
:1006FC00A0FB012208210A4801F09BFB01221021DA
:10070C00074801F096FB00222021054801F091FBDF
:10071C0000224021024801F08CFB00BF80BD00BFCD
:10072C00000C014080B500AF00220121114801F0FE
:10073C0080FB012202210F4801F07BFB00220421E7
:10074C000C4801F076FB002208210A4801F071FBED
:10075C0001221021074801F06CFB002220210548E2
:10076C0001F067FB00224021024801F062FB00BF50
:10077C0080BD00BF000C014080B500AF00220121FC
:10078C00114801F056FB012202210F4801F051FBE8
:10079C00002204210C4801F04CFB002208210A48DD
:1007AC0001F047FB00221021074801F042FB002218
:1007BC002021054801F03DFB00224021024801F0B8
:1007CC0038FB00BF80BD00BF000C014080B500AFFE
:1007DC0000220121114801F02CFB002202210F48BC
:1007EC0001F027FB002204210C4801F022FB01221E
:1007FC0008210A4801F01DFB01221021074801F0D5
:10080C0018FB01222021054801F013FB0122402195
:10081C00024801F00EFB00BF80BD00BF000C014080
:10082C0080B500AF00220121114801F002FB00222B
:10083C0002210F4801F0FDFA002204210C4801F0BE
:10084C00F8FA002208210A4801F0F3FA00221021DC
:10085C00074801F0EEFA00222021054801F0E9FAE0
:10086C0000224021024801F0E4FA00BF80BD00BF25
:10087C00000C014080B500AF00220121114801F0AD
:10088C00D8FA002202210F4801F0D3FA00220421E9
:10089C000C4801F0CEFA002208210A4801F0C9FAEE
:1008AC0001221021074801F0C4FA0022202105483A
:1008BC0001F0BFFA00224021024801F0BAFA00BF51
:1008CC0080BD00BF000C014080B582B000AF7860E5
:1008DC007B68092B34D801A252F823F011090008C7
:1008EC00170900081D090008230900082909000838
:1008FC002F090008350900083B09000841090008C8
:10090C0047090008FFF73CFE1AE0FFF763FE17E00B
:10091C00FFF78AFE14E0FFF7B1FE11E0FFF7D8FEF7
:10092C000EE0FFF7FFFE0BE0FFF726FF08E0FFF7F6
:10093C004DFF05E0FFF774FF02E0FFF79BFF00BFE0
:10094C0000BF0837BD4680BD80B485B000AF78606D
:10095C000023FB6007E00A4AFB68002142F82310E1
:10096C00FB680133FB60FB68032BF4DD044A7B68F6
:10097C00012142F8231000BF1437BD4680BC7047DC
:10098C00B000002080B582B000AF504B1B68504ABD
:10099C001360504B1B684D4A136001214E4801F007
:1009AC0031FA03461A464B4B1A60484B5B68484A6F
:1009BC005360484B5B68454A53600221464801F03E
:1009CC0021FA03461A46434B5A60404B9B68404AF7
:1009DC009360404B9B683D4A936004213E4801F074
:1009EC0011FA03461A463B4B9A60384BDB68384A7F
:1009FC00D360384BDB68354AD3600821364801F0A8
:100A0C0001FA03461A46334BDA6000237B6054E04C
:100A1C002F4A7B6852F823202C497B6851F82330ED
:100A2C009A4247D1294A7B6852F8232029497B688E
:100A3C0051F823309A423DD1284A7B6852F8232042
:100A4C0024497B6851F823309A4216D0214A7B689E
:100A5C0052F8232021497B6841F823201D4A7B68EA
:100A6C0052F82330002B25D17868FFF76DFF1C4A14
:100A7C007B68C82142F823101CE0194A7B6852F8A5
:100A8C0023305A1E16497B6841F82320144A7B6890
:100A9C0052F82330002B0DD10E4A7B6852F82330CC
:100AAC00002B02D17868FFF74FFF0D4A7B68C821F5
:100ABC0042F823107B6801337B607B68032BA7DD36
:100ACC0000BF00BF0837BD4680BD00BF100000202E
:100ADC000000002020000020000801403000002011
:100AEC004000002080B500AFA54B1B68022B79D0CD
:100AFC00022B00F3B380002B02D0012B39D0ADE0D8
:100B0C0000F0E6FB9F4B1B68012B0BD19E4B1B6827
:100B1C009E4A82FB03129210DB17D31A1846FFF77A
:100B2C00EFFC0FE0984B1A68984B83FB021399105B
:100B3C00D317C91A0B469B000B445B00D11A08460D
:100B4C00FFF7DEFC924B1B68002B04D18E4B1B680D
:100B5C00013B8D4A13608C4B1B68002B79D18D4B5C
:100B6C001B68894A1360864B1B680133844A1360E7
:100B7C006FE000F0C5FB834B1B68012B0BD1864B40
:100B8C001B68824A82FB03129210DB17D31A184699
:100B9C00FFF7B6FC0FE0804B1A687C4B83FB02130B
:100BAC009910D317C91A0B469B000B445B00D11A42
:100BBC000846FFF7A5FC764B1B68002B04D1764B3F
:100BCC001B68013B744A1360734B1B68002B42D1AA
:100BDC00724B1B68704A1360694B1B680133684A7F
:100BEC00136038E000F0A4FB664B1B68012B0BD1A3
:100BFC006B4B1B68654A82FB03129210DB17D31AEE
:100C0C001846FFF77DFC0FE0654B1A685F4B83FBC2
:100C1C0002139910D317C91A0B469B000B445B00A7
:100C2C00D11A0846FFF76CFC594B1B68002B04D1FA
:100C3C005B4B1B68013B5A4A1360594B1B68002BDA
:100C4C000BD1584B1B68564A13604D4B00221A604F
:100C5C0003E000BF02E000BF00E000BF524B1B6886
:100C6C00022B7AD0022B00F3D180002B02D0012B67
:100C7C003AD0CBE000F074FB424B1B68012B0BD13C
:100C8C004A4B1B68414A82FB03129210DB17D31AA2
:100C9C001846FFF719FE0FE0444B1A683B4B83FBD9
:100CAC0002139910D317C91A0B469B000B445B0017
:100CBC00D11A0846FFF708FE354B1B68002B04D1F0
:100CCC003A4B1B68013B394A1360384B1B68002BAD
:100CDC0040F097802F4B1B68344A1360324B1B68D3
:100CEC000133314A13608CE000F052FB254B1B683A
:100CFC00012B0BD12E4B1B68244A82FB0312921042
:100D0C00DB17D31A1846FFF7DFFD0FE0284B1A68E4
:100D1C001E4B83FB02139910D317C91A0B469B0069
:100D2C000B445B00D11A0846FFF7CEFD184B1B682D
:100D3C00002B04D11E4B1B68013B1D4A13601C4B3E
:100D4C001B68002B5FD1154B1B68194A1360164B9F
:100D5C001B680133144A136055E000F031FB094B5A
:100D6C001B68012B28D1134B1B68084A82FB03120A
:100D7C009210DB17D31A1846FFF7A6FD2CE000BF24
:100D8C00C00000206C0000205400002067666666DE
:100D9C0070000020740000205C0000207C0000200B
:100DAC005800002078000020500000206000002037
:100DBC006800002064000020154B1A68154B83FB5B
:100DCC0002139910D317C91A0B469B000B445B00F6
:100DDC00D11A0846FFF778FD0F4B1B68002B04D186
:100DEC000B4B1B68013B0A4A1360094B1B68002B19
:100DFC000BD10A4B1B68064A1360094B00221A6080
:100E0C0003E000BF02E000BF00E000BF00BF80BDF8
:100E1C006400002067666666700000207800002081
:100E2C005000002080B584B000AFF860B9607A60E3
:100E3C007B8000F0FFF900224FF480714B4800F0EA
:100E4C00F8FF01224FF40071484800F0F2FF484BC4
:100E5C001B68DAB27B881946786800F0EAFF444BCD
:100E6C001B68DAB2BB8B1946B86900F0E2FFBB8C89
:100E7C0000221946386A00F0DCFFBB8D00221946AF
:100E8C00B86A00F0D6FFBB8E00221946386B00F012
:100E9C00D0FFBB8F00221946B86B00F0CAFFFB686D
:100EAC0001331846FFF710FD324B5B68012B05D15F
:100EBC00304B00225A60BB680133BB602D4B9B68E2
:100ECC00012B1BD12B4B00229A60FB68032B11D0FA
:100EDC00FB68032B13DCFB68012B03D0FB68022B94
:100EEC0004D00CE0244ABB68136008E0234ABB68BA
:100EFC00136004E0224ABB68136000E000BF1D4B86
:100F0C00DB68012B05D11B4B0022DA60BB68013B6F
:100F1C00BB60BB68632B01DD0023BB60BB68002B8F
:100F2C0001DA6323BB60174B1B68012B0AD1BB682A
:100F3C00154A82FB03129210DB17D31A1846FFF7DF
:100F4C00DFFA0EE0BA68104B83FB02139910D3172B
:100F5C00C91A0B469B000B445B00D11A0846FFF7DD
:100F6C00CFFABB6818461037BD4680BD000801405B
:100F7C0080000020B00000207400002078000020C9
:100F8C007C0000206C0000206766666680B58AB025
:100F9C000AAF814B1B68012B11D17F4B00221A60C9
:100FAC007E4B1B6801337D4A13607D4B01221A6016
:100FBC007A4B1B68042B02D1784B00221A60774BBA
:100FCC001B68032B00F2E58001A252F823F000BF4E
:100FDC00ED0F000877100008D91000083B1100082D
:100FEC00704B1B68012B40F0D3806F4B1B68002BA0
:100FFC0002D0012B07D00DE06B4B01221A606B4B1A
:10100C0000221A6006E0684B00221A60674B01222E
:10101C001A6000BF614B1B68002B08D1624B1B6828
:10102C00634A1360614B1B68624A136005E0604BB6
:10103C0000221A605F4B01221A605F4B1B685B42F7
:10104C005D4A13605D4B1B68013B5C4A1360FFF704
:10105C0049FD5A4B1B68002B02D1584B02221A60D7
:10106C003221002000F0E0FA92E04D4B1B68012B7E
:10107C0006D1534B1B68534A1360494B00221A602C
:10108C00464B18684F4B19684FF4804309934E4BED
:10109C0008934FF4006307934B4B06934FF40043B4
:1010AC000593494B04934FF480530393464B02939F
:1010BC004FF400530193444B00934FF48063424A26
:1010CC00FFF7B0FE03463F4A136062E0344B1B68E7
:1010DC00012B06D13D4B1B683A4A1360304B002262
:1010EC001A602E4B1868374B19684FF4004309935C
:1010FC00354B08934FF480530793334B06934FF4BF
:10110C0000530593304B04934FF4806303932E4BA1
:10111C0002934FF4804301932B4B00934FF40063E5
:10112C00294AFFF77FFE0346264A136031E01C4B29
:10113C001B68012B06D1264B1B68224A1360184BE7
:10114C0000221A60154B18681E4B19684FF4005397
:10115C0009931D4B08934FF4806307931A4B069326
:10116C004FF480430593184B04934FF4006303939F
:10117C00154B02934FF400430193134B00934FF420
:10118C008053114AFFF74EFE03460E4A136000E0EF
:10119C0000BF00BFBD4680BDB0000020C8000020CD
:1011AC00C4000020FC00002080000020CC000020A7
:1011BC0084000020D00000206C0000207000002073
:1011CC007400002024010020000801407800002059
:1011DC007C00002080B500AF114B1B68DBB21A46B7
:1011EC004021104800F025FE0F4B1B68DBB21A465D
:1011FC0080210C4800F01DFE0C4B1B68DBB21A461C
:10120C004FF48071074800F014FE094B1B68DBB2E9
:10121C001A464FF40071034800F00BFE00BF80BD6E
:10122C008000002000080140CC0000208400002039
:10123C00D000002080B500AF1B4B9B68012B30D138
:10124C001A4B1B68002B02D0012B07D00DE0174B5B
:10125C0001221A60164B00221A6006E0134B002282
:10126C001A60134B01221A6000BF124B1B68002B33
:10127C0008D10E4B1B68104A13600D4B1B680F4AAC
:10128C00136005E00C4B00221A600C4B01221A6013
:10129C000B4B1B685B420A4A13603221022000F0A0
:1012AC00C3F900BF80BD00BFFC00002080000020FF
:1012BC00CC000020C800002084000020D0000020BA
:1012CC006C00002080B500AFFFF784FF00BF80BD2D
:1012DC0080B500AF01224FF48061084800F0A9FDF1
:1012EC0000224FF48051054800F0A3FD00224FF47A
:1012FC000061024800F09DFD00BF80BD0008014068
:10130C0080B500AF00224FF48061084800F091FDD9
:10131C0000224FF40061054800F08BFD01224FF4D0
:10132C008051024800F085FD00BF80BD00080140DF
:10133C0080B500AF00224FF48061084800F079FDC1
:10134C0001224FF40061054800F073FD00224FF4B8
:10135C008051024800F06DFD00BF80BD00080140C7
:10136C0080B500AF01224FF40051084800F061FD38
:10137C0000224FF40041054800F05BFD00224FF4C1
:10138C008041024800F055FD00BF80BD00080140BF
:10139C0080B500AF00224FF40051084800F049FD21
:1013AC0000224FF48041054800F043FD01224FF428
:1013BC000041024800F03DFD00BF80BD0008014027
:1013CC0080B500AF00224FF40051084800F031FD09
:1013DC0001224FF48041054800F02BFD00224FF410
:1013EC000041024800F025FD00BF80BD000801400F
:1013FC0080B500AF00F01CFA00F01AF800F054F8B9
:10140C0000F09EF8094801F059F90121002000F084
:10141C000BF90121012000F007F90121022000F055
:10142C0003F9FFF7B3FDFFF74DFFFAE728010020A2
:10143C0080B590B000AF07F11803282200211846A0
:10144C0001F0ECFC3B1D00221A605A609A60DA60D5
:10145C001A610223BB610123BB621023FB620023D0
:10146C007B6307F11803184600F0FCFC0346002BC5
:10147C0001D000F0D3F80F237B600023BB60002366
:10148C00FB6000233B6100237B613B1D0021184660
:10149C0000F068FF0346002B01D000F0BFF800BF3E
:1014AC004037BD4680BD000080B586B000AF07F167
:1014BC00080300221A605A609A60DA603B460022E8
:1014CC001A605A601D4B4FF080421A601B4B41F65C
:1014DC003F725A60194B00229A60184B0922DA604D
:1014EC00164B00221A61154B00229A61134801F029
:1014FC0095F80346002B01D000F090F84FF4805380
:10150C00BB6007F1080319460C4801F013FA0346B7
:10151C00002B01D000F082F800233B6000237B609D
:10152C003B461946054801F0EBFB0346002B01D066
:10153C0000F074F800BF1837BD4680BD28010020AC
:10154C0080B586B000AF07F1080300221A605A601C
:10155C009A60DA60284B9B69274A43F00403936135
:10156C00254B9B6903F004037B607B68224B9B69D2
:10157C00214A43F0080393611F4B9B6903F0080356
:10158C003B603B6800224FF6F0711C4800F051FCA8
:10159C0000224FF6FF711A4800F04BFC0F23BB6082
:1015AC000023FB6001233B6107F108031946134834
:1015BC0000F0AEFA4FF6F073BB600123FB60002322
:1015CC003B6102237B6107F1080319460B4800F0CD
:1015DC009FFA4FF6FF73BB600123FB6000233B6156
:1015EC0002237B6107F108031946054800F090FAC5
:1015FC0000BF1837BD4680BD0010024000080140F6
:10160C00000C014080B582B000AF786000F04CF85F
:10161C00FFF7B8F900BF0837BD4680BD80B400AFF6
:10162C0072B600BFFEE7000080B483B000AF7860F4
:10163C003960074A7B68002142F8231005497B6812
:10164C003A6841F8232000BF0C37BD4680BC704778
:10165C00FC000020D400002080B483B000AF786080
:10166C000F4A7B6852F82330002B13DD0C4A7B6841
:10167C0052F823305A1E0A497B6841F82320084A45
:10168C007B6852F82330002B04DC064A7B6801216E
:10169C0042F8231000BF0C37BD4680BC704700BF1A
:1016AC00D4000020FC00002080B500AF0020FFF724
:1016BC00D3FF0120FFF7D0FF0220FFF7CDFF03205F
:1016CC00FFF7CAFF00BF80BD80B485B000AF154BDB
:1016DC009B69144A43F001039361124B9B6903F01D
:1016EC000103BB60BB680F4BDB690E4A43F08053B0
:1016FC00D3610C4BDB6903F080537B607B680A4B36
:10170C005B68FB60FB6823F0E063FB60FB6843F005
:10171C008063FB60044AFB68536000BF1437BD460E
:10172C0080BC7047001002400000014080B584B0BE
:10173C0000AF78607B681B68B3F1804F13D10C4B02
:10174C00DB690B4A43F00103D361094BDB6903F0FE
:10175C000103FB60FB68002200211C2000F0A1F9B2
:10176C001C2000F0BAF900BF1037BD4680BD00BF89
:10177C000010024080B400AFFEE780B400AFFEE77B
:10178C0080B400AFFEE780B400AFFEE780B400AFDA
:10179C00FEE780B400AF00BFBD4680BC704780B48C
:1017AC0000AF00BFBD4680BC704780B400AF00BF27
:1017BC00BD4680BC704780B500AF00F07FF800BF1D
:1017CC0080BD000080B500AF024800F0C3FF00BF31
:1017DC0080BD00BF2801002080B400AF00BFBD4613
:1017EC0080BC7047FFF7F8FF0B480C490C4A0023EC
:1017FC0002E0D458C4500433C4188C42F9D3094ABB
:10180C00094C002301E013600432A242FBD301F027
:10181C00E1FAFFF7EDFD7047000000209400002076
:10182C007C2E00089400002074010020FEE70000CC
:10183C0080B500AF084B1B68074A43F010031360D8
:10184C00032000F023F90F2000F008F8FFF73CFF0D
:10185C000023184680BD00BF0020024080B582B036
:10186C0000AF7860124B1A68124B1B7819464FF474
:10187C007A73B3FBF1F3B2FBF3F3184600F03BF9C8
:10188C000346002B01D001230EE07B680F2B0AD8F6
:10189C00002279684FF0FF3000F003F9064A7B68AC
:1018AC001360002300E0012318460837BD4680BDB5
:1018BC0088000020900000208C00002080B400AF35
:1018CC00054B1B781A46054B1B681344034A1360DF
:1018DC0000BFBD4680BC7047900000207001002006
:1018EC0080B400AF024B1B681846BD4680BC7047E5
:1018FC007001002080B485B000AF78607B6803F085
:10190C000703FB600C4BDB68BB60BA684FF6FF0348
:10191C001340BB60FB681A02BB68134343F0BF6300
:10192C0043F40033BB60044ABB68D36000BF143778
:10193C00BD4680BC704700BF00ED00E080B400AF36
:10194C00044BDB681B0A03F007031846BD4680BC3A
:10195C00704700BF00ED00E080B483B000AF0346D9
:10196C00FB7197F90730002B0BDBFB7903F01F029F
:10197C00064997F907305B09012000FA02F241F899
:10198C00232000BF0C37BD4680BC704700E100E04F
:10199C0080B483B000AF03463960FB7197F9073010
:1019AC00002B0ADB3B68DAB20C4997F907301201BD
:1019BC00D2B20B4483F800230AE03B68DAB2084940
:1019CC00FB7903F00F03043B1201D2B20B441A76DD
:1019DC0000BF0C37BD4680BC704700BF00E100E083
:1019EC0000ED00E080B489B000AFF860B9607A60B7
:1019FC00FB6803F00703FB61FB69C3F10703042BCE
:101A0C0028BF0423BB61FB690433062B02D9FB6995
:101A1C00033B00E000237B614FF0FF32BB6902FA0D
:101A2C0003F3DA43BB681A407B699A404FF0FF31ED
:101A3C007B6901FA03F3D9437B680B4013431846C7
:101A4C002437BD4680BC704780B582B000AF78604B
:101A5C007B68013BB3F1807F01D301230FE00A4A7D
:101A6C007B68013B53600F214FF0FF30FFF790FF75
:101A7C00054B00229A60044B07221A60002318467B
:101A8C000837BD4680BD00BF10E000E080B582B0D5
:101A9C0000AF78607868FFF72DFF00BF0837BD46B0
:101AAC0080BD80B586B000AF0346B9607A60FB7329
:101ABC0000237B61FFF742FF78617A68B968786927
:101ACC00FFF790FF024697F90F3011461846FFF7C3
:101ADC005FFF00BF1837BD4680BD80B582B000AF38
:101AEC000346FB7197F907301846FFF735FF00BF27
:101AFC000837BD4680BD80B582B000AF786078688D
:101B0C00FFF7A2FF034618460837BD4680BD00000C
:101B1C0080B48BB000AF7860396000237B62002307
:101B2C003B6248E101227B6A02FA03F3FB613B68EA
:101B3C001B68FA691340BB61BA69FB699A4240F0B1
:101B4C0037813B685B68A34A93425ED0A14A9342BB
:101B5C0075D8A14A934258D09F4A93426FD89F4A56
:101B6C00934252D09D4A934269D89D4A93424CD09D
:101B7C009B4A934263D89B4A934246D0994A9342DC
:101B8C005DD8122B2AD8122B59D801A252F823F067
:101B9C00171C0008F11B0008031C0008451C00085A
:101BAC004B1C00084B1C00084B1C00084B1C00086D
:101BBC004B1C00084B1C00084B1C00084B1C00085D
:101BCC004B1C00084B1C00084B1C00084B1C00084D
:101BDC004B1C0008F91B00080D1C0008824A93429C
:101BEC0013D02CE03B68DB683B6229E03B68DB6888
:101BFC0004333B6224E03B68DB6808333B621FE044
:101C0C003B68DB680C333B621AE03B689B68002B3B
:101C1C0002D104233B6213E03B689B68012B05D186
:101C2C0008233B627B68FA691A6109E008233B626E
:101C3C007B68FA695A6103E000233B6200E000BF55
:101C4C00BB69FF2B01D87B6801E07B6804337B61A7
:101C5C00BB69FF2B02D87B6A9B0002E07B6A083BC6
:101C6C009B003B617B691A680F213B6901FA03F306
:101C7C00DB431A40396A3B6901FA03F31A437B6967
:101C8C001A603B685B6803F08053002B00F0908077
:101C9C00564B9B69554A43F001039361534B9B6927
:101CAC0003F00103BB60BB68514A7B6A9B0802339B
:101CBC0052F82330FB607B6A03F003039B000F2276
:101CCC0002FA03F3DB43FA681340FB607B68494A72
:101CDC0093420DD07B68484A934207D07B68474AB1
:101CEC00934201D1022304E0032302E0012300E02C
:101CFC0000237A6A02F0030292009340FA681343BD
:101D0C00FB603B497B6A9B080233FA6841F823204D
:101D1C003B685B6803F48013002B06D0384B9A6841
:101D2C003749BB6913438B6006E0354B9A68BB6936
:101D3C00DB43334913408B603B685B6803F400134F
:101D4C00002B06D02E4BDA682D49BB691343CB60B0
:101D5C0006E02B4BDA68BB69DB4329491340CB60A7
:101D6C003B685B6803F40033002B06D0244B5A68A5
:101D7C002349BB6913434B6006E0214B5A68BB698E
:101D8C00DB431F4913404B603B685B6803F48033B3
:101D9C00002B06D01A4B1A681949BB6913430B6008
:101DAC0006E0174B1A68BB69DB43154913400B60FF
:101DBC007B6A01337B623B681A687B6A22FA03F305
:101DCC00002B7FF4AFAE00BF00BF2C37BD4680BCEC
:101DDC00704700BF000032100000311000002210CC
:101DEC000000211000001210000011100010024021
:101DFC000000014000080140000C014000100140AF
:101E0C000004014080B485B000AF78600B467B8045
:101E1C007B689A687B881340002B02D00123FB73EC
:101E2C0001E00023FB73FB7B18461437BD4680BCD6
:101E3C00704780B483B000AF78600B467B8013464C
:101E4C007B707B78002B03D07A887B681A6103E067
:101E5C007B881A047B681A6100BF0C37BD4680BCB6
:101E6C007047000080B586B000AF78607B68002BAF
:101E7C0001D101236CE27B681B6803F00103002B8A
:101E8C0000F08780924B5B6803F00C03042B0CD0A2
:101E9C008F4B5B6803F00C03082B12D18C4B5B68E7
:101EAC0003F48033B3F5803F0BD1894B1B6803F4EB
:101EBC000033002B6CD07B685B68002B68D101234E
:101ECC0046E27B685B68B3F5803F06D1804B1B68AC
:101EDC007F4A43F4803313602EE07B685B68002BF1
:101EEC000CD17B4B1B687A4A23F480331360784BFC
:101EFC001B68774A23F4802313601DE07B685B68C2
:101F0C00B3F5A02F0CD1724B1B68714A43F480239C
:101F1C0013606F4B1B686E4A43F4803313600BE005
:101F2C006B4B1B686A4A23F480331360684B1B6845
:101F3C00674A23F4802313607B685B68002B13D003
:101F4C00FFF7CEFC386108E0FFF7CAFC02463B699C
:101F5C00D31A642B01D90323FAE15D4B1B6803F4FC
:101F6C000033002BF0D014E0FFF7BAFC386108E026
:101F7C00FFF7B6FC02463B69D31A642B01D9032345
:101F8C00E6E1534B1B6803F40033002BF0D100E067
:101F9C0000BF7B681B6803F00203002B63D04C4B23
:101FAC005B6803F00C03002B0BD0494B5B6803F010
:101FBC000C03082B1CD1464B5B6803F48033002BBD
:101FCC0016D1434B1B6803F00203002B05D07B6832
:101FDC001B69012B01D00123BAE13D4B1B6823F097
:101FEC00F8027B685B69DB00394913430B603AE00C
:101FFC007B681B69002B20D0364B01221A60FFF73F
:10200C006FFC386108E0FFF76BFC02463B69D31AA2
:10201C00022B01D903239BE12D4B1B6803F0020318
:10202C00002BF0D02A4B1B6823F0F8027B685B690D
:10203C00DB00274913430B6015E0264B00221A6086
:10204C00FFF74EFC386108E0FFF74AFC02463B699B
:10205C00D31A022B01D903237AE11D4B1B6803F021
:10206C000203002BF0D17B681B6803F00803002BE4
:10207C003AD07B689B69002B19D0174B01221A6050
:10208C00FFF72EFC386108E0FFF72AFC02463B699B
:10209C00D31A022B01D903235AE10D4B5B6A03F0CF
:1020AC000203002BF0D0012000F09AFA1CE00A4B3E
:1020BC0000221A60FFF714FC38610FE0FFF710FCE8
:1020CC0002463B69D31A022B08D9032340E100BF17
:1020DC000010024000004242800442429E4B5B6A68
:1020EC0003F00203002BE9D17B681B6803F00403A7
:1020FC00002B00F0A6800023FB75974BDB6903F0E7
:10210C008053002B0DD1944BDB69934A43F08053E1
:10211C00D361914BDB6903F08053BB60BB68012337
:10212C00FB758E4B1B6803F48073002B18D18B4B03
:10213C001B688A4A43F480731360FFF7D1FB386144
:10214C0008E0FFF7CDFB02463B69D31A642B01D99B
:10215C000323FDE0814B1B6803F48073002BF0D04C
:10216C007B68DB68012B06D17B4B1B6A7A4A43F0F8
:10217C00010313622DE07B68DB68002B0CD1764BDE
:10218C001B6A754A23F001031362734B1B6A724A74
:10219C0023F0040313621CE07B68DB68052B0CD175
:1021AC006D4B1B6A6C4A43F0040313626A4B1B6A47
:1021BC00694A43F0010313620BE0674B1B6A664AE2
:1021CC0023F001031362644B1B6A634A23F004037C
:1021DC0013627B68DB68002B15D0FFF781FB38613D
:1021EC000AE0FFF77DFB02463B69D31A41F28832C5
:1021FC00934201D90323ABE0574B1B6A03F0020354
:10220C00002BEED014E0FFF76BFB38610AE0FFF710
:10221C0067FB02463B69D31A41F28832934201D9DB
:10222C00032395E04C4B1B6A03F00203002BEED109
:10223C00FB7D012B05D1484BDB69474A23F08053CA
:10224C00D3617B68DB69002B00F08180424B5B68BB
:10225C0003F00C03082B61D07B68DB69022B46D1A1
:10226C003F4B00221A60FFF73BFB386108E0FFF799
:10227C0037FB02463B69D31A022B01D9032367E0D3
:10228C00354B1B6803F00073002BF0D17B681B6A85
:10229C00B3F5803F08D1304B5B6823F400327B6888
:1022AC009B682D4913434B602B4B5B6823F47412D2
:1022BC007B68196A7B685B6A0B43274913434B6045
:1022CC00274B01221A60FFF70BFB386108E0FFF780
:1022DC0007FB02463B69D31A022B01D9032337E0D3
:1022EC001D4B1B6803F00073002BF0D02FE01C4B30
:1022FC0000221A60FFF7F4FA386108E0FFF7F0FAF1
:10230C0002463B69D31A022B01D9032320E0124B5E
:10231C001B6803F00073002BF0D118E07B68DB69BD
:10232C00012B01D1012313E00B4B5B68FB60FB68B5
:10233C0003F480327B681B6A9A4206D1FB6803F473
:10234C0070127B685B6A9A4201D0012300E0002383
:10235C0018461837BD4680BD001002400070004082
:10236C006000424280B584B000AF786039607B6811
:10237C00002B01D10123D0E06A4B1B6803F007034B
:10238C003A689A4210D9674B1B6823F007026549DB
:10239C003B6813430B60634B1B6803F007033A68FD
:1023AC009A4201D00123B8E07B681B6803F002035A
:1023BC00002B20D07B681B6803F00403002B05D096
:1023CC00594B5B68584A43F4E06353607B681B6865
:1023DC0003F00803002B05D0534B5B68524A43F4BF
:1023EC0060535360504B5B6823F0F0027B689B6832
:1023FC004D4913434B607B681B6803F00103002BB2
:10240C0040D07B685B68012B07D1474B1B6803F4FA
:10241C000033002B15D101237FE07B685B68022B16
:10242C0007D1414B1B6803F00073002B09D101232A
:10243C0073E03D4B1B6803F00203002B01D1012319
:10244C006BE0394B5B6823F003027B685B683649B1
:10245C0013434B60FFF744FAF8600AE0FFF740FAC9
:10246C000246FB68D31A41F28832934201D9032306
:10247C0053E02D4B5B6803F00C027B685B689B00A0
:10248C009A42EBD1274B1B6803F007033A689A4238
:10249C0010D2244B1B6823F0070222493B681343DC
:1024AC000B60204B1B6803F007033A689A4201D07B
:1024BC00012332E07B681B6803F00403002B08D077
:1024CC00194B5B6823F4E0627B68DB6816491343A5
:1024DC004B607B681B6803F00803002B09D0124B80
:1024EC005B6823F460527B681B69DB000E49134365
:1024FC004B6000F021F802460B4B5B681B0903F0A4
:10250C000F030A49CB5C22FA03F3094A1360094B07
:10251C001B681846FFF7A2F9002318461037BD4672
:10252C0080BD00BF0020024000100240502E000869
:10253C00880000208C00002080B487B000AF0023FE
:10254C00FB600023BB6000237B6100237B600023C6
:10255C003B611E4B5B68FB60FB6803F00C03042BB8
:10256C0002D0082B03D027E0194B3B6127E0FB6816
:10257C009B0C03F00F03174AD35C7B60FB6803F4DE
:10258C008033002B10D0114B5B685B0C03F0010304
:10259C00114AD35CBB607B680D4A02FB03F2BB683B
:1025AC00B2FBF3F37B6104E07B680C4A02FB03F3A0
:1025BC007B617B693B6102E0054B3B6100BF3B6982
:1025CC0018461C37BD4680BC704700BF0010024047
:1025DC0000127A00602E0008702E000800093D00E1
:1025EC0080B485B000AF78600A4B1B680A4AA2FB26
:1025FC0003235B0A7A6802FB03F3FB6000BFFB68F2
:10260C005A1EFA60002BF9D100BF00BF1437BD462B
:10261C0080BC704788000020D34D621080B582B01A
:10262C0000AF78607B68002B01D1012341E07B680F
:10263C0093F83D30DBB2002B06D17B68002283F887
:10264C003C207868FFF772F87B68022283F83D2003
:10265C007B681A687B6804331946104600F056FAFA
:10266C007B68012283F846207B68012283F83E2098
:10267C007B68012283F83F207B68012283F840208D
:10268C007B68012283F841207B68012283F8422079
:10269C007B68012283F843207B68012283F8442065
:1026AC007B68012283F845207B68012283F83D205A
:1026BC00002318460837BD4680BD000080B485B0A5
:1026CC0000AF78607B6893F83D30DBB2012B01D012
:1026DC00012335E07B68022283F83D207B681B6870
:1026EC00DA687B681B6842F00102DA607B681B6861
:1026FC00164A934209D07B681B68B3F1804F04D013
:10270C007B681B68124A934211D17B681B689B68DB
:10271C0003F00703FB60FB68062B10D07B681B687B
:10272C001A687B681B6842F001021A6007E07B683C
:10273C001B681A687B681B6842F001021A60002350
:10274C0018461437BD4680BC704700BF002C0140B2
:10275C000004004080B584B000AF78607B681B68D3
:10276C00DB68FB607B681B681B69BB60BB6803F0A4
:10277C000203002B20D0FB6803F00203002B1BD0BC
:10278C007B681B686FF002021A617B6801221A7762
:10279C007B681B689B6903F00303002B03D07868EC
:1027AC0000F098F905E0786800F08BF9786800F093
:1027BC009AF97B6800221A77BB6803F00403002B9C
:1027CC0020D0FB6803F00403002B1BD07B681B6834
:1027DC006FF004021A617B6802221A777B681B680F
:1027EC009B6903F44073002B03D0786800F072F9F6
:1027FC0005E0786800F065F9786800F074F97B689A
:10280C0000221A77BB6803F00803002B20D0FB686A
:10281C0003F00803002B1BD07B681B686FF00802C9
:10282C001A617B6804221A777B681B68DB6903F0EA
:10283C000303002B03D0786800F04CF905E07868AE
:10284C0000F03FF9786800F04EF97B6800221A77A7
:10285C00BB6803F01003002B20D0FB6803F01003BF
:10286C00002B1BD07B681B686FF010021A617B6811
:10287C0008221A777B681B68DB6903F44073002B12
:10288C0003D0786800F026F905E0786800F019F9B3
:10289C00786800F028F97B6800221A77BB6803F08F
:1028AC000103002B0CD0FB6803F00103002B07D0B5
:1028BC007B681B686FF001021A617868FEF7A2FE54
:1028CC00BB6803F08003002B0CD0FB6803F0800383
:1028DC00002B07D07B681B686FF080021A61786848
:1028EC0000F06FFABB6803F04003002B0CD0FB68C0
:1028FC0003F04003002B07D07B681B686FF040028D
:10290C001A61786800F0F8F8BB6803F02003002B1C
:10291C000CD0FB6803F02003002B07D07B681B68EE
:10292C006FF020021A61786800F042FA00BF10378D
:10293C00BD4680BD80B584B000AF7860396000239F
:10294C00FB737B6893F83C30012B01D10223B4E07C
:10295C007B68012283F83C207B68022283F83D20AF
:10296C007B681B689B68BB60BB6823F07703BB600C
:10297C00BB6823F47F43BB607B681B68BA689A60B2
:10298C003B681B68B3F5005F3ED0B3F5005F00F207
:10299C008780B3F5805F00F08680B3F5805F7FD8C9
:1029AC00702B1AD0702B7BD8602B50D0602B77D823
:1029BC00502B3CD0502B73D8402B58D0402B6FD879
:1029CC00302B64D0302B6BD8202B60D0202B67D8C9
:1029DC00002B5CD0102B5AD062E07B6818683B68E7
:1029EC0099683B685A683B68DB6800F06AF97B6859
:1029FC001B689B68BB60BB6843F07703BB607B685C
:102A0C001B68BA689A604FE07B6818683B689968E5
:102A1C003B685A683B68DB6800F053F97B681B68BD
:102A2C009A687B681B6842F480429A603CE07B6841
:102A3C0018683B6859683B68DB681A4600F0CAF8AE
:102A4C007B681B685021184600F021F92CE07B684C
:102A5C0018683B6859683B68DB681A4600F0E8F870
:102A6C007B681B686021184600F011F91CE07B683C
:102A7C0018683B6859683B68DB681A4600F0AAF88E
:102A8C007B681B684021184600F001F90CE07B685C
:102A9C001A683B681B681946104600F0F8F803E00A
:102AAC000123FB7300E000BF7B68012283F83D200B
:102ABC007B68002283F83C20FB7B18461037BD4610
:102ACC0080BD80B483B000AF786000BF0C37BD46CA
:102ADC0080BC704780B483B000AF786000BF0C3707
:102AEC00BD4680BC704780B483B000AF786000BF37
:102AFC000C37BD4680BC704780B483B000AF7860A3
:102B0C0000BF0C37BD4680BC7047000080B485B058
:102B1C0000AF786039607B681B68FB607B682B4A70
:102B2C00934207D07B68B3F1804F03D07B68284A6F
:102B3C00934208D1FB6823F07003FB603B685B6831
:102B4C00FA681343FB607B68204A934207D07B688A
:102B5C00B3F1804F03D07B681D4A934208D1FB68C8
:102B6C0023F44073FB603B68DB68FA681343FB603B
:102B7C00FB6823F080023B685B691343FB607B6856
:102B8C00FA681A603B689A687B68DA623B681A6874
:102B9C007B689A627B680D4A934203D13B681A6941
:102BAC007B681A637B6801225A617B681B6903F09E
:102BBC000103002B05D07B681B6923F001027B68A5
:102BCC001A6100BF1437BD4680BC7047002C014011
:102BDC000004004080B487B000AFF860B9607A6040
:102BEC00FB681B6A7B61FB681B6A23F00102FB68B4
:102BFC001A62FB689B693B613B6923F0F0033B6104
:102C0C007B681B013A6913433B617B6923F00A0320
:102C1C007B617A69BB6813437B61FB683A699A6193
:102C2C00FB687A691A6200BF1C37BD4680BC7047CE
:102C3C0080B487B000AFF860B9607A60FB681B6A3B
:102C4C007B61FB681B6A23F01002FB681A62FB684D
:102C5C009B693B613B6923F470433B617B681B03BD
:102C6C003A6913433B617B6923F0A0037B61BB682A
:102C7C001B017A6913437B61FB683A699A61FB68B3
:102C8C007A691A6200BF1C37BD4680BC704780B49D
:102C9C0085B000AF786039607B689B68FB60FB682F
:102CAC0023F07003FB603A68FB68134343F007039F
:102CBC00FB607B68FA689A6000BF1437BD4680BC25
:102CCC00704780B487B000AFF860B9607A603B6041
:102CDC00FB689B687B617B6923F47F437B613B686A
:102CEC001A027B681A43BB6813437A6913437B61EE
:102CFC00FB687A699A6000BF1C37BD4680BC704780
:102D0C0080B485B000AF786039607B6893F83C3054
:102D1C00012B01D1022341E07B68012283F83C2086
:102D2C007B68022283F83D207B681B685B68FB6034
:102D3C007B681B689B68BB60FB6823F07003FB60BF
:102D4C003B681B68FA681343FB607B681B68FA6876
:102D5C005A607B681B68144A934209D07B681B68D5
:102D6C00B3F1804F04D07B681B68104A93420CD19E
:102D7C00BB6823F08003BB603B685B68BA68134395
:102D8C00BB607B681B68BA689A607B68012283F819
:102D9C003D207B68002283F83C2000231846143722
:102DAC00BD4680BC704700BF002C014000040040B1
:102DBC0080B483B000AF786000BF0C37BD4680BCD8
:102DCC00704780B483B000AF786000BF0C37BD464D
:102DDC0080BC704770B500260C4D0D4C641BA410C4
:102DEC00A64209D100F022F800260A4D0A4C641BB9
:102DFC00A410A64205D170BD55F8043B9847013686
:102E0C00EEE755F8043B98470136F2E7742E0008BC
:102E1C00742E0008742E0008782E00080346024415
:102E2C00934200D1704703F8011BF9E7F8B500BFD6
:102E3C00F8BC08BC9E467047F8B500BFF8BC08BC8F
:042E4C009E467047E7
:102E5000000000000000000001020304060708094A
:102E600002030405060708090A0B0C0D0E0F1010CB
:042E7000010200005B
:042E74003101000820
:042E78000D01000840
:102E7C000100000001000000010000000100000042
:102E8C000100000001000000010000000100000032
:102E9C000100000001000000010000000100000022
:102EAC000100000001000000010000000100000012
:102EBC00C8000000C8000000C8000000C8000000E6
:102ECC0001000000050000000200000003000000EB
:102EDC0005000000020000000300000001000000DB
:102EEC0002000000050000000200000003000000CA
:102EFC00010000000100000000127A001000000028
:042F0C0001000000C0
:04000005080017F1E7
:00000001FF
